{
  "contractName": "FeeCharger",
  "abi": [
    {
      "inputs": [
        {
          "internalType": "address",
          "name": "velo_",
          "type": "address"
        }
      ],
      "payable": false,
      "stateMutability": "nonpayable",
      "type": "constructor"
    },
    {
      "constant": true,
      "inputs": [],
      "name": "beneficiary",
      "outputs": [
        {
          "internalType": "address",
          "name": "",
          "type": "address"
        }
      ],
      "payable": false,
      "stateMutability": "view",
      "type": "function"
    },
    {
      "constant": true,
      "inputs": [],
      "name": "chi",
      "outputs": [
        {
          "internalType": "contract ICHI",
          "name": "",
          "type": "address"
        }
      ],
      "payable": false,
      "stateMutability": "view",
      "type": "function"
    },
    {
      "constant": true,
      "inputs": [],
      "name": "chi_fee_remaining",
      "outputs": [
        {
          "internalType": "uint256",
          "name": "",
          "type": "uint256"
        }
      ],
      "payable": false,
      "stateMutability": "view",
      "type": "function"
    },
    {
      "constant": true,
      "inputs": [],
      "name": "gov",
      "outputs": [
        {
          "internalType": "address",
          "name": "",
          "type": "address"
        }
      ],
      "payable": false,
      "stateMutability": "view",
      "type": "function"
    },
    {
      "constant": true,
      "inputs": [],
      "name": "govFactor",
      "outputs": [
        {
          "internalType": "uint256",
          "name": "",
          "type": "uint256"
        }
      ],
      "payable": false,
      "stateMutability": "view",
      "type": "function"
    },
    {
      "constant": true,
      "inputs": [],
      "name": "gov_fee_factor",
      "outputs": [
        {
          "internalType": "uint256",
          "name": "",
          "type": "uint256"
        }
      ],
      "payable": false,
      "stateMutability": "view",
      "type": "function"
    },
    {
      "constant": true,
      "inputs": [],
      "name": "last_block_number",
      "outputs": [
        {
          "internalType": "uint256",
          "name": "",
          "type": "uint256"
        }
      ],
      "payable": false,
      "stateMutability": "view",
      "type": "function"
    },
    {
      "constant": true,
      "inputs": [],
      "name": "max_gas_block",
      "outputs": [
        {
          "internalType": "uint256",
          "name": "",
          "type": "uint256"
        }
      ],
      "payable": false,
      "stateMutability": "view",
      "type": "function"
    },
    {
      "constant": true,
      "inputs": [],
      "name": "min_gas_tx",
      "outputs": [
        {
          "internalType": "uint256",
          "name": "",
          "type": "uint256"
        }
      ],
      "payable": false,
      "stateMutability": "view",
      "type": "function"
    },
    {
      "constant": true,
      "inputs": [],
      "name": "velo",
      "outputs": [
        {
          "internalType": "contract VELOTokenInterface",
          "name": "",
          "type": "address"
        }
      ],
      "payable": false,
      "stateMutability": "view",
      "type": "function"
    },
    {
      "constant": false,
      "inputs": [
        {
          "internalType": "uint256",
          "name": "value",
          "type": "uint256"
        }
      ],
      "name": "setMaxGasBlock",
      "outputs": [],
      "payable": false,
      "stateMutability": "nonpayable",
      "type": "function"
    },
    {
      "constant": false,
      "inputs": [
        {
          "internalType": "uint256",
          "name": "value",
          "type": "uint256"
        }
      ],
      "name": "setMinGasTx",
      "outputs": [],
      "payable": false,
      "stateMutability": "nonpayable",
      "type": "function"
    },
    {
      "constant": false,
      "inputs": [
        {
          "internalType": "uint256",
          "name": "value",
          "type": "uint256"
        }
      ],
      "name": "setGovFeeFactor",
      "outputs": [],
      "payable": false,
      "stateMutability": "nonpayable",
      "type": "function"
    },
    {
      "constant": false,
      "inputs": [
        {
          "internalType": "address",
          "name": "newGov",
          "type": "address"
        }
      ],
      "name": "setGov",
      "outputs": [],
      "payable": false,
      "stateMutability": "nonpayable",
      "type": "function"
    },
    {
      "constant": false,
      "inputs": [
        {
          "internalType": "uint256",
          "name": "factor",
          "type": "uint256"
        }
      ],
      "name": "setGovFactor",
      "outputs": [],
      "payable": false,
      "stateMutability": "nonpayable",
      "type": "function"
    },
    {
      "constant": false,
      "inputs": [
        {
          "internalType": "address",
          "name": "beneficiary_",
          "type": "address"
        }
      ],
      "name": "setBeneficiary",
      "outputs": [],
      "payable": false,
      "stateMutability": "nonpayable",
      "type": "function"
    },
    {
      "constant": false,
      "inputs": [
        {
          "internalType": "uint256",
          "name": "fEMA",
          "type": "uint256"
        },
        {
          "internalType": "uint256",
          "name": "sEMA",
          "type": "uint256"
        },
        {
          "internalType": "uint256",
          "name": "totalSupply",
          "type": "uint256"
        },
        {
          "internalType": "uint256",
          "name": "_amount",
          "type": "uint256"
        }
      ],
      "name": "chargeFee",
      "outputs": [],
      "payable": false,
      "stateMutability": "nonpayable",
      "type": "function"
    },
    {
      "constant": true,
      "inputs": [
        {
          "internalType": "uint256",
          "name": "max_gas_block",
          "type": "uint256"
        },
        {
          "internalType": "uint256",
          "name": "min_gas_tx",
          "type": "uint256"
        },
        {
          "internalType": "uint256",
          "name": "ema_long",
          "type": "uint256"
        },
        {
          "internalType": "uint256",
          "name": "tx_size",
          "type": "uint256"
        },
        {
          "internalType": "uint256",
          "name": "total_supply",
          "type": "uint256"
        },
        {
          "internalType": "uint256",
          "name": "gov_fee_factor",
          "type": "uint256"
        }
      ],
      "name": "calc_fee_gas",
      "outputs": [
        {
          "internalType": "uint256",
          "name": "",
          "type": "uint256"
        }
      ],
      "payable": false,
      "stateMutability": "pure",
      "type": "function"
    }
  ],
  "bytecode": "0x608060405234801561001057600080fd5b50604051610a03380380610a038339818101604052602081101561003357600080fd5b5051600080546001600160a01b039092166001600160a01b0319928316178155600280549092163317909155670de0b6b3a76400006006556807518058bd45bc0000600455676f05b59d3b20000060055560078190556008556109688061009b6000396000f3fe608060405234801561001057600080fd5b50600436106101365760003560e01c8063c70b623e116100b2578063c947337911610081578063f1949bde11610066578063f1949bde146102c1578063fa7aa161146102fc578063ff9e2a231461030457610136565b8063c947337914610271578063cfad57a21461028e57610136565b8063c70b623e1461023c578063c74090a414610244578063c7c34e9814610261578063c92aecc41461026957610136565b806338af3eed116101095780638665ff1b116100ee5780638665ff1b146101fa5780638c7c53ce146102175780639dd923dc1461021f57610136565b806338af3eed146101ea5780634df053fd146101f257610136565b806312d43a511461013b5780631c31f7101461016c5780631eeaebb2146101a157806327abd23f146101bb575b600080fd5b61014361030c565b6040805173ffffffffffffffffffffffffffffffffffffffff9092168252519081900360200190f35b61019f6004803603602081101561018257600080fd5b503573ffffffffffffffffffffffffffffffffffffffff16610328565b005b6101a96103f7565b60408051918252519081900360200190f35b61019f600480360360808110156101d157600080fd5b50803590602081013590604081013590606001356103fd565b61014361063f565b6101a961065b565b61019f6004803603602081101561021057600080fd5b5035610661565b610143610666565b61019f6004803603602081101561023557600080fd5b5035610682565b6101a9610687565b61019f6004803603602081101561025a57600080fd5b503561068d565b6101a961071a565b610143610720565b61019f6004803603602081101561028757600080fd5b5035610732565b61019f600480360360208110156102a457600080fd5b503573ffffffffffffffffffffffffffffffffffffffff16610737565b6101a9600480360360c08110156102d757600080fd5b5080359060208101359060408101359060608101359060808101359060a00135610806565b6101a9610843565b6101a9610849565b60025473ffffffffffffffffffffffffffffffffffffffff1681565b60025473ffffffffffffffffffffffffffffffffffffffff1633146103b057604080517f08c379a0000000000000000000000000000000000000000000000000000000008152602060048083019190915260248201527f21676f7600000000000000000000000000000000000000000000000000000000604482015290519081900360640190fd5b600380547fffffffffffffffffffffffff00000000000000000000000000000000000000001673ffffffffffffffffffffffffffffffffffffffff92909216919091179055565b60075481565b6000610413600454600554868587600654610806565b905043600754141561043c5780600854101561042e57506008545b60088054829003905561044a565b436007556004548190036008555b600081118015610471575060035473ffffffffffffffffffffffffffffffffffffffff1615155b15610638576d4946c0e9f43f4dee607b0ef1fa1c63a0712d68670de0b6b3a764000083046040518263ffffffff1660e01b815260040180828152602001915050600060405180830381600087803b1580156104cb57600080fd5b505af11580156104df573d6000803e3d6000fd5b5050600354604080517f70a0823100000000000000000000000000000000000000000000000000000000815230600482015290516d4946c0e9f43f4dee607b0ef1fa1c945063a9059cbb935073ffffffffffffffffffffffffffffffffffffffff9092169184916370a08231916024808301926020929190829003018186803b15801561056b57600080fd5b505afa15801561057f573d6000803e3d6000fd5b505050506040513d602081101561059557600080fd5b5051604080517fffffffff0000000000000000000000000000000000000000000000000000000060e086901b16815273ffffffffffffffffffffffffffffffffffffffff909316600484015260248301919091525160448083019260209291908290030181600087803b15801561060b57600080fd5b505af115801561061f573d6000803e3d6000fd5b505050506040513d602081101561063557600080fd5b50505b5050505050565b60035473ffffffffffffffffffffffffffffffffffffffff1681565b60065481565b600555565b60005473ffffffffffffffffffffffffffffffffffffffff1681565b600655565b60015481565b60025473ffffffffffffffffffffffffffffffffffffffff16331461071557604080517f08c379a0000000000000000000000000000000000000000000000000000000008152602060048083019190915260248201527f21676f7600000000000000000000000000000000000000000000000000000000604482015290519081900360640190fd5b600155565b60085481565b6d4946c0e9f43f4dee607b0ef1fa1c81565b600455565b60025473ffffffffffffffffffffffffffffffffffffffff1633146107bf57604080517f08c379a0000000000000000000000000000000000000000000000000000000008152602060048083019190915260248201527f21676f7600000000000000000000000000000000000000000000000000000000604482015290519081900360640190fd5b600280547fffffffffffffffffffffffff00000000000000000000000000000000000000001673ffffffffffffffffffffffffffffffffffffffff92909216919091179055565b6000868682610818818989898961084f565b9050670de0b6b3a764000060648483020404828110156108355750815b9a9950505050505050505050565b60045481565b60055481565b600084678ac7230489e800006102548504861161086e57506006610915565b6101718504861161088157506009610915565b60e4850486116108935750600f610915565b608d850486116108a557506017610915565b6057850486116108b757506025610915565b6036850486116108c957506037610915565b6021850486116108db5750604c610915565b6015850486116108ed5750605c610915565b600d850486116108ff57506062610915565b60068504861161091157506063610915565b5060645b670de0b6b3a76400006064838302048502049897505050505050505056fea265627a7a72315820ac615731627a575d6cfee7914116b57c61e7791c9c94088c6d6f24206614354564736f6c63430005110032",
  "source": "pragma solidity 0.5.17;\n\nimport \"../lib/ICHI.sol\";\nimport {VELOTokenInterface as IVELO} from \"../token/VELOTokenInterface.sol\";\n\ncontract FeeCharger {\n\n  ICHI public constant chi = ICHI(0x0000000000004946c0e9F43F4Dee607b0eF1fA1c);\n  IVELO public velo;\n\n  uint256 public govFactor;\n  address public gov;\n  address public beneficiary;\n\n  uint256 public max_gas_block;\n  uint256 public min_gas_tx;\n  uint256 public gov_fee_factor;\n\n  uint256 public last_block_number;\n  uint256 public chi_fee_remaining;\n\n  function setMaxGasBlock(uint256 value) public {\n    max_gas_block = value;\n  }\n\n  function setMinGasTx(uint256 value) public {\n    min_gas_tx = value;\n  }\n\n  function setGovFeeFactor(uint256 value) public {\n    gov_fee_factor = value;\n  }\n\n  modifier onlyGov() {\n    require(msg.sender == gov, \"!gov\");\n    _;\n  }\n\n  constructor(address velo_) public {\n    velo\t   = IVELO(velo_);\n\n    // government levers\n    gov            = msg.sender;\n    gov_fee_factor = 1 * 10**18;\n    max_gas_block  = 135 * 10**18;\n    min_gas_tx     = 8 * 10**18;\n\n    // tracking amount of chi charged\n    // in a block.\n    last_block_number = 0;\n    chi_fee_remaining = 0;\n\n  }\n\n  function setGov(address newGov) external onlyGov {\n    gov = newGov;\n  }\n\n  function setGovFactor(uint256 factor) external onlyGov {\n    govFactor = factor;\n  }\n\n  function setBeneficiary(address beneficiary_) external onlyGov {\n    beneficiary = beneficiary_;\n  }\n\n  function chargeFee(uint256 fEMA, uint256 sEMA, uint256 totalSupply, uint256 _amount) public {\n    uint256 chi_fee = \n      calc_fee_gas(max_gas_block, min_gas_tx, sEMA, _amount, totalSupply, gov_fee_factor);\n\n    // count total amount of chi charges within a block. If the current\n    // chi_fee charged in a block overflows the max_gas_block it will be\n    // discounted to exactly max_gas_block\n    if(last_block_number == block.number) {\n      // protect against overflow\n      if (chi_fee_remaining < chi_fee) {\n\tchi_fee = chi_fee_remaining;\n      }\n      chi_fee_remaining = chi_fee_remaining - chi_fee;\n    } else {\n      last_block_number = block.number;\n      // the chi_fee can be maximal max_gas_block, limited\n      // in the calc_fee_gas function. So no safe math needed\n      // here.\n      chi_fee_remaining = max_gas_block - chi_fee;\n    }\n\n    // velo token will only allow max_gas_block to be charged\n    // we will not charge for transactions exceeding the max_gas_block\n    // as we do not want transactions to fail because of the minting.\n    if (chi_fee > 0 && beneficiary != address(0x0)) {\n      // chi.mint needs tokens as a unit\n      chi.mint(chi_fee / 10**18);\n      chi.transfer(beneficiary, chi.balanceOf(address(this)));\n    }\n  }\n\n  function calc_fee_ratio_discrete(\n    uint256 ema1_vt,\n    uint256 ema2_vt,\n    uint256 tx_size,\n    uint256 total_supply,\n    uint256 gov_fee_factor\n  ) internal pure returns (uint256) {\n    uint256 tx_discount_factor = ema2_vt;\n\n    uint256 tx_fee_ratio = 10 * 10**18;\n\n    if(tx_size <= total_supply / 596) {\n      tx_fee_ratio = 6;\n    } else if(tx_size <= total_supply / 369) {\n      tx_fee_ratio = 9;\n    } else if(tx_size <= total_supply / 228) {\n      tx_fee_ratio = 15;\n    } else if(tx_size <= total_supply / 141) {\n      tx_fee_ratio = 23;\n    } else if(tx_size <= total_supply / 87) {\n      tx_fee_ratio = 37;\n    } else if(tx_size <= total_supply / 54) {\n      tx_fee_ratio = 55;\n    } else if(tx_size <= total_supply / 33) {\n      tx_fee_ratio = 76;\n    } else if(tx_size <= total_supply / 21) {\n      tx_fee_ratio = 92;\n    } else if(tx_size <= total_supply / 13) {\n      tx_fee_ratio = 98;\n    } else if(tx_size <= total_supply / 6) {\n      tx_fee_ratio = 99;\n    } else {\n      tx_fee_ratio = 100;\n    }\n\n    return ((tx_fee_ratio * tx_discount_factor / 100) * gov_fee_factor)\n    / 10**18;\n  }\n\n  // NOTE: we return and unscaled integer between roughly\n  //       8 and 135 to approximate the gas fee for the\n  //       velocity transaction\n  function calc_fee_gas(\n    uint256 max_gas_block,\n    uint256 min_gas_tx,\n    uint256 ema_long,\n    uint256 tx_size,\n    uint256 total_supply,\n    uint256 gov_fee_factor\n  ) public pure returns (uint256) {\n    uint256 max_gas_chi_per_block = max_gas_block;\n    uint256 min_gas_chi_fee_per_tx = min_gas_tx;\n\n    uint256 tx_fee_ratio_disc =\n      calc_fee_ratio_discrete(0, ema_long, tx_size, total_supply, gov_fee_factor);\n\n    uint256 tx_fee_chi_disc =\n      max_gas_chi_per_block * tx_fee_ratio_disc / 100 / 10**18;\n\n    if ( tx_fee_chi_disc < min_gas_chi_fee_per_tx ) {\n      tx_fee_chi_disc = min_gas_chi_fee_per_tx;\n    }\n\n    return tx_fee_chi_disc;\n  }\n}\n",
  "sourcePath": "/Users/bmaas/Sites/velo/velo-protocol-master/contracts/feeCharger/FeeCharger.sol",
  "compiler": {
    "name": "solc",
    "version": "0.5.17+commit.d19bba13.Emscripten.clang"
  },
  "schemaVersion": "3.3.0",
  "updatedAt": "2020-10-18T12:34:01.872Z",
  "networkType": "ethereum",
  "devdoc": {
    "methods": {}
  },
  "userdoc": {
    "methods": {}
  }
}