{
  "contractName": "VELORebaser",
  "abi": [
    {
      "inputs": [
        {
          "internalType": "address",
          "name": "_VELO",
          "type": "address"
        }
      ],
      "payable": false,
      "stateMutability": "nonpayable",
      "type": "constructor"
    },
    {
      "constant": true,
      "inputs": [],
      "name": "C",
      "outputs": [
        {
          "internalType": "uint256",
          "name": "",
          "type": "uint256"
        }
      ],
      "payable": false,
      "stateMutability": "view",
      "type": "function"
    },
    {
      "constant": true,
      "inputs": [],
      "name": "K",
      "outputs": [
        {
          "internalType": "uint256",
          "name": "",
          "type": "uint256"
        }
      ],
      "payable": false,
      "stateMutability": "view",
      "type": "function"
    },
    {
      "constant": true,
      "inputs": [],
      "name": "Lf",
      "outputs": [
        {
          "internalType": "uint256",
          "name": "",
          "type": "uint256"
        }
      ],
      "payable": false,
      "stateMutability": "view",
      "type": "function"
    },
    {
      "constant": true,
      "inputs": [],
      "name": "Ls",
      "outputs": [
        {
          "internalType": "uint256",
          "name": "",
          "type": "uint256"
        }
      ],
      "payable": false,
      "stateMutability": "view",
      "type": "function"
    },
    {
      "constant": true,
      "inputs": [],
      "name": "PRECISSION",
      "outputs": [
        {
          "internalType": "uint256",
          "name": "",
          "type": "uint256"
        }
      ],
      "payable": false,
      "stateMutability": "view",
      "type": "function"
    },
    {
      "constant": true,
      "inputs": [],
      "name": "REBASE_INTERVAL",
      "outputs": [
        {
          "internalType": "uint256",
          "name": "",
          "type": "uint256"
        }
      ],
      "payable": false,
      "stateMutability": "view",
      "type": "function"
    },
    {
      "constant": true,
      "inputs": [],
      "name": "START_REBASE_AT",
      "outputs": [
        {
          "internalType": "uint256",
          "name": "",
          "type": "uint256"
        }
      ],
      "payable": false,
      "stateMutability": "view",
      "type": "function"
    },
    {
      "constant": true,
      "inputs": [],
      "name": "VELO",
      "outputs": [
        {
          "internalType": "address",
          "name": "",
          "type": "address"
        }
      ],
      "payable": false,
      "stateMutability": "view",
      "type": "function"
    },
    {
      "constant": true,
      "inputs": [],
      "name": "fEMA",
      "outputs": [
        {
          "internalType": "uint256",
          "name": "",
          "type": "uint256"
        }
      ],
      "payable": false,
      "stateMutability": "view",
      "type": "function"
    },
    {
      "constant": true,
      "inputs": [],
      "name": "gov",
      "outputs": [
        {
          "internalType": "address",
          "name": "",
          "type": "address"
        }
      ],
      "payable": false,
      "stateMutability": "view",
      "type": "function"
    },
    {
      "constant": true,
      "inputs": [],
      "name": "lastRebase",
      "outputs": [
        {
          "internalType": "uint256",
          "name": "",
          "type": "uint256"
        }
      ],
      "payable": false,
      "stateMutability": "view",
      "type": "function"
    },
    {
      "constant": true,
      "inputs": [],
      "name": "sEMA",
      "outputs": [
        {
          "internalType": "uint256",
          "name": "",
          "type": "uint256"
        }
      ],
      "payable": false,
      "stateMutability": "view",
      "type": "function"
    },
    {
      "constant": true,
      "inputs": [
        {
          "internalType": "uint256",
          "name": "",
          "type": "uint256"
        }
      ],
      "name": "transactions",
      "outputs": [
        {
          "internalType": "address",
          "name": "destination",
          "type": "address"
        },
        {
          "internalType": "bytes",
          "name": "data",
          "type": "bytes"
        }
      ],
      "payable": false,
      "stateMutability": "view",
      "type": "function"
    },
    {
      "constant": true,
      "inputs": [],
      "name": "velocity",
      "outputs": [
        {
          "internalType": "uint256",
          "name": "",
          "type": "uint256"
        }
      ],
      "payable": false,
      "stateMutability": "view",
      "type": "function"
    },
    {
      "constant": false,
      "inputs": [
        {
          "internalType": "address",
          "name": "newGov",
          "type": "address"
        }
      ],
      "name": "setGov",
      "outputs": [],
      "payable": false,
      "stateMutability": "nonpayable",
      "type": "function"
    },
    {
      "constant": false,
      "inputs": [
        {
          "internalType": "address",
          "name": "destination",
          "type": "address"
        },
        {
          "internalType": "bytes",
          "name": "data",
          "type": "bytes"
        }
      ],
      "name": "addTransaction",
      "outputs": [],
      "payable": false,
      "stateMutability": "nonpayable",
      "type": "function"
    },
    {
      "constant": false,
      "inputs": [
        {
          "internalType": "uint256",
          "name": "index",
          "type": "uint256"
        }
      ],
      "name": "removeTransaction",
      "outputs": [],
      "payable": false,
      "stateMutability": "nonpayable",
      "type": "function"
    },
    {
      "constant": false,
      "inputs": [
        {
          "internalType": "uint256",
          "name": "amount",
          "type": "uint256"
        }
      ],
      "name": "registerVelocity",
      "outputs": [],
      "payable": false,
      "stateMutability": "nonpayable",
      "type": "function"
    },
    {
      "constant": true,
      "inputs": [],
      "name": "getVelocity",
      "outputs": [
        {
          "internalType": "uint256",
          "name": "",
          "type": "uint256"
        }
      ],
      "payable": false,
      "stateMutability": "view",
      "type": "function"
    },
    {
      "constant": true,
      "inputs": [],
      "name": "getRelativeVelocity",
      "outputs": [
        {
          "internalType": "uint256",
          "name": "",
          "type": "uint256"
        }
      ],
      "payable": false,
      "stateMutability": "view",
      "type": "function"
    },
    {
      "constant": false,
      "inputs": [],
      "name": "rebase",
      "outputs": [],
      "payable": false,
      "stateMutability": "nonpayable",
      "type": "function"
    },
    {
      "constant": true,
      "inputs": [
        {
          "internalType": "int256",
          "name": "_value",
          "type": "int256"
        }
      ],
      "name": "toFP",
      "outputs": [
        {
          "internalType": "int128",
          "name": "",
          "type": "int128"
        }
      ],
      "payable": false,
      "stateMutability": "pure",
      "type": "function"
    },
    {
      "constant": true,
      "inputs": [
        {
          "internalType": "int128",
          "name": "_value",
          "type": "int128"
        }
      ],
      "name": "toInt",
      "outputs": [
        {
          "internalType": "int256",
          "name": "",
          "type": "int256"
        }
      ],
      "payable": false,
      "stateMutability": "pure",
      "type": "function"
    },
    {
      "constant": true,
      "inputs": [
        {
          "internalType": "uint256",
          "name": "_v1t",
          "type": "uint256"
        },
        {
          "internalType": "uint256",
          "name": "_v2t",
          "type": "uint256"
        }
      ],
      "name": "op_nv1t_plus_v2t_v",
      "outputs": [
        {
          "internalType": "int128",
          "name": "",
          "type": "int128"
        }
      ],
      "payable": false,
      "stateMutability": "pure",
      "type": "function"
    },
    {
      "constant": true,
      "inputs": [
        {
          "internalType": "int128",
          "name": "_op_nv1t_plus_v2t_v",
          "type": "int128"
        },
        {
          "internalType": "uint256",
          "name": "_k",
          "type": "uint256"
        }
      ],
      "name": "op_div_k_v",
      "outputs": [
        {
          "internalType": "int128",
          "name": "",
          "type": "int128"
        }
      ],
      "payable": false,
      "stateMutability": "pure",
      "type": "function"
    },
    {
      "constant": true,
      "inputs": [
        {
          "internalType": "int128",
          "name": "_op_div_k_v",
          "type": "int128"
        }
      ],
      "name": "op_e_pow_v",
      "outputs": [
        {
          "internalType": "int128",
          "name": "",
          "type": "int128"
        }
      ],
      "payable": false,
      "stateMutability": "pure",
      "type": "function"
    },
    {
      "constant": true,
      "inputs": [
        {
          "internalType": "int128",
          "name": "_op_e_pow_v",
          "type": "int128"
        }
      ],
      "name": "op_one_plus_v",
      "outputs": [
        {
          "internalType": "int128",
          "name": "",
          "type": "int128"
        }
      ],
      "payable": false,
      "stateMutability": "pure",
      "type": "function"
    },
    {
      "constant": true,
      "inputs": [
        {
          "internalType": "int128",
          "name": "_op_one_plus_v",
          "type": "int128"
        }
      ],
      "name": "op_div_v",
      "outputs": [
        {
          "internalType": "int128",
          "name": "",
          "type": "int128"
        }
      ],
      "payable": false,
      "stateMutability": "pure",
      "type": "function"
    },
    {
      "constant": true,
      "inputs": [
        {
          "internalType": "int128",
          "name": "_op_div_v",
          "type": "int128"
        }
      ],
      "name": "op_n_plus_v",
      "outputs": [
        {
          "internalType": "int128",
          "name": "",
          "type": "int128"
        }
      ],
      "payable": false,
      "stateMutability": "pure",
      "type": "function"
    },
    {
      "constant": true,
      "inputs": [
        {
          "internalType": "uint256",
          "name": "_c",
          "type": "uint256"
        },
        {
          "internalType": "int128",
          "name": "_op_n_plus_v",
          "type": "int128"
        }
      ],
      "name": "op_c_mul_v",
      "outputs": [
        {
          "internalType": "int128",
          "name": "",
          "type": "int128"
        }
      ],
      "payable": false,
      "stateMutability": "pure",
      "type": "function"
    },
    {
      "constant": true,
      "inputs": [
        {
          "internalType": "int128",
          "name": "_op_c_mul_v",
          "type": "int128"
        }
      ],
      "name": "op_rt_v",
      "outputs": [
        {
          "internalType": "int128",
          "name": "",
          "type": "int128"
        }
      ],
      "payable": false,
      "stateMutability": "pure",
      "type": "function"
    },
    {
      "constant": true,
      "inputs": [
        {
          "internalType": "uint256",
          "name": "_v1t",
          "type": "uint256"
        },
        {
          "internalType": "uint256",
          "name": "_v2t",
          "type": "uint256"
        },
        {
          "internalType": "uint256",
          "name": "_c",
          "type": "uint256"
        },
        {
          "internalType": "uint256",
          "name": "_k",
          "type": "uint256"
        }
      ],
      "name": "calcFTFixed",
      "outputs": [
        {
          "internalType": "uint256",
          "name": "",
          "type": "uint256"
        }
      ],
      "payable": false,
      "stateMutability": "pure",
      "type": "function"
    }
  ],
  "bytecode": "0x60806040523480156200001157600080fd5b5060405162002c4838038062002c48833981016040819052620000349162000076565b600480546001600160a01b039092166001600160a01b03199283161790556005805490911633179055620000cb565b80516200007081620000b1565b92915050565b6000602082840312156200008957600080fd5b600062000097848462000063565b949350505050565b60006001600160a01b03821662000070565b620000bc816200009f565b8114620000c857600080fd5b50565b612b6d80620000db6000396000f3fe608060405234801561001057600080fd5b50600436106101ef5760003560e01c806392ca95891161010f578063b35cf9a0116100a2578063eab1f5cc11610071578063eab1f5cc1461039b578063ecdcdd75146103ae578063f37a8b1e146103c1578063fe5a9c40146103c9576101ef565b8063b35cf9a01461035a578063ce0998c114610362578063cfad57a214610375578063dde0eb2b14610388576101ef565b8063a0eeb39a116100de578063a0eeb39a1461033a578063a932492f14610342578063aea03d111461034a578063af14052c14610352576101ef565b806392ca9589146102e057806399adc78a146102f35780639ace38c2146103065780639c7c878c14610327576101ef565b80632cd4c899116101875780636dc382e4116101565780636dc382e41461028757806378f353a1146102c857806383dfe5fd146102d05780638deca9e9146102d8576101ef565b80632cd4c899146102875780633a900eb91461029a57806346c3bd1f146102a25780634baee498146102b5576101ef565b806312d43a51116101c357806312d43a511461024f57806317e0d8eb1461026457806323393c1d1461026c57806325e2790c1461027f576101ef565b8062654b3f146101f45780630a3822e6146102125780630e27675f1461021a578063126e19be1461023a575b600080fd5b6101fc6103d1565b604051610209919061292d565b60405180910390f35b6101fc6103d7565b61022d610228366004612466565b6103dd565b604051610209919061291f565b61024d6102483660046123c6565b6103f0565b005b61025761051c565b60405161020991906128f1565b6101fc610538565b61022d61027a3660046124d2565b610543565b6101fc610683565b61022d610295366004612418565b610689565b6101fc610699565b61024d6102b0366004612466565b6106a5565b61022d6102c3366004612418565b6106fc565b6101fc61072d565b6101fc610733565b6101fc61073f565b6101fc6102ee3660046124f1565b61074b565b6101fc610301366004612418565b6107da565b610319610314366004612466565b6107ee565b6040516102099291906128ff565b61024d610335366004612466565b6108db565b610257610945565b6101fc610961565b6101fc61096d565b61024d610975565b6101fc610bc6565b61022d610370366004612418565b610bcd565b61024d6103833660046123a8565b610bec565b61022d6103963660046124a2565b610c84565b61022d6103a9366004612418565b610d07565b61022d6103bc366004612436565b610d12565b6101fc610d8d565b6101fc610d93565b60035481565b60025481565b60006103e882610e8b565b90505b919050565b60055473ffffffffffffffffffffffffffffffffffffffff16331461044a576040517f08c379a00000000000000000000000000000000000000000000000000000000081526004016104419061298c565b60405180910390fd5b6040805180820190915273ffffffffffffffffffffffffffffffffffffffff83811682526020808301848152600680546001810180835560009290925285517ff652222313e28459528d920b65115c16c04f3efc82aaedc97be59f3f377c0d3f600290920291820180547fffffffffffffffffffffffff000000000000000000000000000000000000000016919096161785559151805191959493610514937ff652222313e28459528d920b65115c16c04f3efc82aaedc97be59f3f377c0d40019291019061225d565b505050505050565b60055473ffffffffffffffffffffffffffffffffffffffff1681565b66e4d48dc1fba00081565b60007f7fffffffffffffffffffffffffffffffffffffffffffffffffffffffffffffff831061059e576040517f08c379a00000000000000000000000000000000000000000000000000000000081526004016104419061296c565b7f7fffffffffffffffffffffffffffffffffffffffffffffffffffffffffffffff82106105f7576040517f08c379a00000000000000000000000000000000000000000000000000000000081526004016104419061299c565b60006106227fffffffffffffffffffffffffffffffffffffffffffffffffffffffffffffffff610e8b565b9050600061063885670de0b6b3a7640000610ed5565b9050600061064e85670de0b6b3a7640000610ed5565b905061067781610668600f85900b8663ffffffff610f2516565b600f0b9063ffffffff610f7d16565b93505050505b92915050565b61a8c081565b60006103e8826106686001610fd1565b67010e0198eaee000081565b60055473ffffffffffffffffffffffffffffffffffffffff1633146106f6576040517f08c379a00000000000000000000000000000000000000000000000000000000081526004016104419061298c565b60068054fe5b60006103e88261066860017ffffffffffffffffffffffffffffffffffffffffffffffffffffffffffffffffe610fe8565b60005481565b67167469570af8cf0081565b670de0b6b3a764000081565b6000806107588686610543565b905060006107668285610d12565b9050600061077382610d07565b9050600061078082610689565b9050600061078d82610bcd565b9050600061079a826106fc565b905060006107a88a83610c84565b905060006107b582610689565b90506107c981670de0b6b3a76400006110a2565b9d9c50505050505050505050505050565b60006103e882670de0b6b3a7640000611124565b600681815481106107fb57fe5b600091825260209182902060029182020180546001808301805460408051601f7fffffffffffffffffffffffffffffffffffffffffffffffffffffffffffffffff9584161561010002959095019092169690960492830187900487028101870190955281855273ffffffffffffffffffffffffffffffffffffffff909216955091939091908301828280156108d15780601f106108a6576101008083540402835291602001916108d1565b820191906000526020600020905b8154815290600101906020018083116108b457829003601f168201915b5050505050905082565b60045473ffffffffffffffffffffffffffffffffffffffff16331461092c576040517f08c379a0000000000000000000000000000000000000000000000000000000008152600401610441906129ec565b60035461093f908263ffffffff61124b16565b60035550565b60045473ffffffffffffffffffffffffffffffffffffffff1681565b67d02ab486cedc000081565b635f8c2f7181565b635f8c2f7142116109b2576040517f08c379a0000000000000000000000000000000000000000000000000000000008152600401610441906129ac565b61a8c06000544203116109f1576040517f08c379a0000000000000000000000000000000000000000000000000000000008152600401610441906129cc565b333214610a2a576040517f08c379a0000000000000000000000000000000000000000000000000000000008152600401610441906129dc565b60048054604080517ffe5a9c40000000000000000000000000000000000000000000000000000000008152905173ffffffffffffffffffffffffffffffffffffffff90921692600092309263fe5a9c409281810192602092909190829003018186803b158015610a9957600080fd5b505afa158015610aad573d6000803e3d6000fd5b505050506040513d601f19601f82011682018060405250610ad19190810190612484565b9050610ae76002548266e4d48dc1fba00061128a565b600255600154610b00908267010e0198eaee000061128a565b6001819055506000610b2860025460015467167469570af8cf0067d02ab486cedc000061074b565b6040517fbc4f2d6d00000000000000000000000000000000000000000000000000000000815290915073ffffffffffffffffffffffffffffffffffffffff84169063bc4f2d6d90610b7d90849060040161292d565b600060405180830381600087803b158015610b9757600080fd5b505af1158015610bab573d6000803e3d6000fd5b505042600090815560035550610bc190506112a5565b505050565b6003545b90565b60006103e882610bdd6001610fd1565b600f0b9063ffffffff61143416565b60055473ffffffffffffffffffffffffffffffffffffffff163314610c3d576040517f08c379a00000000000000000000000000000000000000000000000000000000081526004016104419061298c565b600580547fffffffffffffffffffffffff00000000000000000000000000000000000000001673ffffffffffffffffffffffffffffffffffffffff92909216919091179055565b60007f7fffffffffffffffffffffffffffffffffffffffffffffffffffffffffffffff8310610cdf576040517f08c379a00000000000000000000000000000000000000000000000000000000081526004016104419061295c565b6000610cf384670de0b6b3a7640000610ed5565b9050610cff8184610f25565b949350505050565b60006103e8826114a7565b60007f7fffffffffffffffffffffffffffffffffffffffffffffffffffffffffffffff8210610d6d576040517f08c379a00000000000000000000000000000000000000000000000000000000081526004016104419061294c565b6000610d8183670de0b6b3a7640000610ed5565b9050610cff8482611434565b60015481565b600080600460009054906101000a900473ffffffffffffffffffffffffffffffffffffffff1690506000610e668273ffffffffffffffffffffffffffffffffffffffff166318160ddd6040518163ffffffff1660e01b815260040160206040518083038186803b158015610e0657600080fd5b505afa158015610e1a573d6000803e3d6000fd5b505050506040513d601f19601f82011682018060405250610e3e9190810190612484565b600354610e5a9068056bc75e2d6310000063ffffffff61151716565b9063ffffffff61156b16565b905068056bc75e2d63100000811115610e85575068056bc75e2d631000005b91505090565b60007fffffffffffffffffffffffffffffffffffffffffffffffff80000000000000008212158015610ec55750677fffffffffffffff8213155b610ece57600080fd5b5060401b90565b600081610ee157600080fd5b6000610eed84846115ad565b90506f7fffffffffffffffffffffffffffffff6fffffffffffffffffffffffffffffffff82161115610f1e57600080fd5b9392505050565b6000600f83810b9083900b0260401d7fffffffffffffffffffffffffffffffff800000000000000000000000000000008112801590610f7457506f7fffffffffffffffffffffffffffffff8113155b610f1e57600080fd5b6000600f83810b9083900b017fffffffffffffffffffffffffffffffff800000000000000000000000000000008112801590610f7457506f7fffffffffffffffffffffffffffffff811315610f1e57600080fd5b6000677fffffffffffffff821115610ece57600080fd5b600081610ff457600080fd5b60008084121561100957836000039350600190505b600083121561101b5760009290920391155b600061102785856115ad565b9050811561106a576f80000000000000000000000000000000816fffffffffffffffffffffffffffffffff16111561105e57600080fd5b600003915061067d9050565b6f7fffffffffffffffffffffffffffffff816fffffffffffffffffffffffffffffffff16111561109957600080fd5b915061067d9050565b6000816110b15750600061067d565b600083600f0b12156110c257600080fd5b600f83900b6fffffffffffffffffffffffffffffffff8316810260401c90608084901c0277ffffffffffffffffffffffffffffffffffffffffffffffff81111561110b57600080fd5b60401b811981111561111c57600080fd5b019392505050565b6000600f83900b7fffffffffffffffffffffffffffffffff8000000000000000000000000000000014156111b2577fffffffffffffffff000000000000000000000000000000000000000000000001821215801561119b575078010000000000000000000000000000000000000000000000008213155b6111a457600080fd5b506000819003603f1b61067d565b6000600f84900b8113156111cb57836000039350600190505b60008312156111dd5760009290920391155b60006111e985856110a2565b9050811561121e577f800000000000000000000000000000000000000000000000000000000000000081111561105e57600080fd5b7f7fffffffffffffffffffffffffffffffffffffffffffffffffffffffffffffff81111561109957600080fd5b600082820183811015610f1e576040517f08c379a00000000000000000000000000000000000000000000000000000000081526004016104419061297c565b670de0b6b3a764000091810282900490820392909202040190565b60005b600654811015611431576112ba6122f6565b600682815481106112c757fe5b60009182526020918290206040805180820182526002938402909201805473ffffffffffffffffffffffffffffffffffffffff16835260018082018054845161010093821615939093027fffffffffffffffffffffffffffffffffffffffffffffffffffffffffffffffff011695909504601f810187900487028201870190935282815292949093858201939290918301828280156113a75780601f1061137c576101008083540402835291602001916113a7565b820191906000526020600020905b81548152906001019060200180831161138a57829003601f168201915b5050505050815250509050806000015173ffffffffffffffffffffffffffffffffffffffff1681602001516040516113df91906128e5565b6000604051808303816000865af19150503d806000811461141c576040519150601f19603f3d011682016040523d82523d6000602084013e611421565b606091505b5050600190920191506112a89050565b50565b600081600f0b6000141561144757600080fd5b600082600f0b604085600f0b901b8161145c57fe5b0590507fffffffffffffffffffffffffffffffff800000000000000000000000000000008112801590610f7457506f7fffffffffffffffffffffffffffffff811315610f1e57600080fd5b60006840000000000000000082600f0b126114c157600080fd5b7fffffffffffffffffffffffffffffffffffffffffffffffc0000000000000000082600f0b12156114f4575060006103eb565b6103e8608083600f0b700171547652b82fe1777d0ffda0d23a7d1202901d611723565b6000826115265750600061067d565b8282028284828161153357fe5b0414610f1e576040517f08c379a0000000000000000000000000000000000000000000000000000000008152600401610441906129bc565b6000610f1e83836040518060400160405280601a81526020017f536166654d6174683a206469766973696f6e206279207a65726f00000000000081525061220c565b6000816115b957600080fd5b600077ffffffffffffffffffffffffffffffffffffffffffffffff84116115ef5782604085901b816115e757fe5b049050611706565b60c084811c6401000000008110611608576020918201911c5b62010000811061161a576010918201911c5b610100811061162b576008918201911c5b6010811061163b576004918201911c5b6004811061164b576002918201911c5b6002811061165a576001820191505b60bf820360018603901c6001018260ff0387901b8161167557fe5b0492506fffffffffffffffffffffffffffffffff83111561169557600080fd5b608085901c83026fffffffffffffffffffffffffffffffff8616840260c088901c604089901b828110156116ca576001820391505b608084901b929003828110156116e1576001820391505b829003608084901c82146116f157fe5b8881816116fa57fe5b04870196505050505050505b6fffffffffffffffffffffffffffffffff811115610f1e57600080fd5b60006840000000000000000082600f0b1261173d57600080fd5b7fffffffffffffffffffffffffffffffffffffffffffffffc0000000000000000082600f0b1215611770575060006103eb565b6f8000000000000000000000000000000060006780000000000000008416600f0b13156117ae5770016a09e667f3bcc908b2fb1366ea957d3e0260801c5b60008367400000000000000016600f0b13156117db577001306fe0a31b7152de8d5a46305c85edec0260801c5b60008367200000000000000016600f0b1315611808577001172b83c7d517adcdf7c8c50eb14a791f0260801c5b60008367100000000000000016600f0b13156118355770010b5586cf9890f6298b92b71842a983630260801c5b60008367080000000000000016600f0b1315611862577001059b0d31585743ae7c548eb68ca417fd0260801c5b60008367040000000000000016600f0b131561188f57700102c9a3e778060ee6f7caca4f7a29bde80260801c5b60008367020000000000000016600f0b13156118bc5770010163da9fb33356d84a66ae336dcdfa3f0260801c5b60008367010000000000000016600f0b13156118e957700100b1afa5abcbed6129ab13ec11dc95430260801c5b600083668000000000000016600f0b13156119155770010058c86da1c09ea1ff19d294cf2f679b0260801c5b600083664000000000000016600f0b1315611941577001002c605e2e8cec506d21bfc89a23a00f0260801c5b600083662000000000000016600f0b131561196d57700100162f3904051fa128bca9c55c31e5df0260801c5b600083661000000000000016600f0b1315611999577001000b175effdc76ba38e31671ca9397250260801c5b600083660800000000000016600f0b13156119c557700100058ba01fb9f96d6cacd4b180917c3d0260801c5b600083660400000000000016600f0b13156119f15770010002c5cc37da9491d0985c348c68e7b30260801c5b600083660200000000000016600f0b1315611a1d577001000162e525ee054754457d59952920260260801c5b600083660100000000000016600f0b1315611a495770010000b17255775c040618bf4a4ade83fc0260801c5b6000836580000000000016600f0b1315611a74577001000058b91b5bc9ae2eed81e9b7d4cfab0260801c5b6000836540000000000016600f0b1315611a9f57700100002c5c89d5ec6ca4d7c8acc017b7c90260801c5b6000836520000000000016600f0b1315611aca5770010000162e43f4f831060e02d839a9d16d0260801c5b6000836510000000000016600f0b1315611af557700100000b1721bcfc99d9f890ea069117630260801c5b6000836508000000000016600f0b1315611b205770010000058b90cf1e6d97f9ca14dbcc16280260801c5b6000836504000000000016600f0b1315611b4b577001000002c5c863b73f016468f6bac5ca2b0260801c5b6000836502000000000016600f0b1315611b7657700100000162e430e5a18f6119e3c02282a50260801c5b6000836501000000000016600f0b1315611ba1577001000000b1721835514b86e6d96efd1bfe0260801c5b60008364800000000016600f0b1315611bcb57700100000058b90c0b48c6be5df846c5b2ef0260801c5b60008364400000000016600f0b1315611bf55770010000002c5c8601cc6b9e94213c72737a0260801c5b60008364200000000016600f0b1315611c1f577001000000162e42fff037df38aa2b219f060260801c5b60008364100000000016600f0b1315611c495770010000000b17217fba9c739aa5819f44f90260801c5b60008364080000000016600f0b1315611c73577001000000058b90bfcdee5acd3c1cedc8230260801c5b60008364040000000016600f0b1315611c9d57700100000002c5c85fe31f35a6a30da1be500260801c5b60008364020000000016600f0b1315611cc75770010000000162e42ff0999ce3541b9fffcf0260801c5b60008364010000000016600f0b1315611cf157700100000000b17217f80f4ef5aadda455540260801c5b600083638000000016600f0b1315611d1a5770010000000058b90bfbf8479bd5a81b51ad0260801c5b600083634000000016600f0b1315611d43577001000000002c5c85fdf84bd62ae30a74cc0260801c5b600083632000000016600f0b1315611d6c57700100000000162e42fefb2fed257559bdaa0260801c5b600083631000000016600f0b1315611d95577001000000000b17217f7d5a7716bba4a9ae0260801c5b600083630800000016600f0b1315611dbe57700100000000058b90bfbe9ddbac5e109cce0260801c5b600083630400000016600f0b1315611de75770010000000002c5c85fdf4b15de6f17eb0d0260801c5b600083630200000016600f0b1315611e10577001000000000162e42fefa494f1478fde050260801c5b600083630100000016600f0b1315611e395770010000000000b17217f7d20cf927c8e94c0260801c5b6000836280000016600f0b1315611e61577001000000000058b90bfbe8f71cb4e4b33d0260801c5b6000836240000016600f0b1315611e8957700100000000002c5c85fdf477b662b269450260801c5b6000836220000016600f0b1315611eb15770010000000000162e42fefa3ae53369388c0260801c5b6000836210000016600f0b1315611ed957700100000000000b17217f7d1d351a389d400260801c5b6000836208000016600f0b1315611f015770010000000000058b90bfbe8e8b2d3d4ede0260801c5b6000836204000016600f0b1315611f29577001000000000002c5c85fdf4741bea6e77e0260801c5b6000836202000016600f0b1315611f5157700100000000000162e42fefa39fe95583c20260801c5b6000836201000016600f0b1315611f79577001000000000000b17217f7d1cfb72b45e10260801c5b60008361800016600f0b1315611fa057700100000000000058b90bfbe8e7cc35c3f00260801c5b60008361400016600f0b1315611fc75770010000000000002c5c85fdf473e242ea380260801c5b60008361200016600f0b1315611fee577001000000000000162e42fefa39f02b772c0260801c5b60008361100016600f0b13156120155770010000000000000b17217f7d1cf7d83c1a0260801c5b60008361080016600f0b131561203c577001000000000000058b90bfbe8e7bdcbe2e0260801c5b60008361040016600f0b131561206357700100000000000002c5c85fdf473dea871f0260801c5b60008361020016600f0b131561208a5770010000000000000162e42fefa39ef44d910260801c5b60008361010016600f0b13156120b157700100000000000000b17217f7d1cf79e9490260801c5b600083608016600f0b13156120d75770010000000000000058b90bfbe8e7bce5440260801c5b600083604016600f0b13156120fd577001000000000000002c5c85fdf473de6eca0260801c5b600083602016600f0b131561212357700100000000000000162e42fefa39ef366f0260801c5b600083601016600f0b1315612149577001000000000000000b17217f7d1cf79afa0260801c5b600083600816600f0b131561216f57700100000000000000058b90bfbe8e7bcd6d0260801c5b600083600416600f0b13156121955770010000000000000002c5c85fdf473de6b20260801c5b600083600216600f0b13156121bb577001000000000000000162e42fefa39ef3580260801c5b600083600116600f0b13156121e15770010000000000000000b17217f7d1cf79ab0260801c5b600f83810b60401d603f03900b1c6f7fffffffffffffffffffffffffffffff8111156103e857600080fd5b60008183612247576040517f08c379a0000000000000000000000000000000000000000000000000000000008152600401610441919061293b565b50600083858161225357fe5b0495945050505050565b828054600181600116156101000203166002900490600052602060002090601f016020900481019282601f1061229e57805160ff19168380011785556122cb565b828001600101855582156122cb579182015b828111156122cb5782518255916020019190600101906122b0565b506122d792915061230e565b5090565b828111156122cb5782548255916001019190600101906122db565b60408051808201909152600081526060602082015290565b610bca91905b808211156122d75760008155600101612314565b803561067d81612b04565b600082601f83011261234457600080fd5b813561235761235282612a23565b6129fc565b9150808252602083016020830185838301111561237357600080fd5b61237e838284612aa0565b50505092915050565b803561067d81612b18565b803561067d81612b21565b805161067d81612b21565b6000602082840312156123ba57600080fd5b6000610cff8484612328565b600080604083850312156123d957600080fd5b60006123e58585612328565b925050602083013567ffffffffffffffff81111561240257600080fd5b61240e85828601612333565b9150509250929050565b60006020828403121561242a57600080fd5b6000610cff8484612387565b6000806040838503121561244957600080fd5b60006124558585612387565b925050602061240e85828601612392565b60006020828403121561247857600080fd5b6000610cff8484612392565b60006020828403121561249657600080fd5b6000610cff848461239d565b600080604083850312156124b557600080fd5b60006124c18585612392565b925050602061240e85828601612387565b600080604083850312156124e557600080fd5b60006124558585612392565b6000806000806080858703121561250757600080fd5b60006125138787612392565b945050602061252487828801612392565b935050604061253587828801612392565b925050606061254687828801612392565b91505092959194509250565b61255b81612a76565b82525050565b600061256c82612a69565b6125768185612a6d565b9350612586818560208601612aac565b61258f81612adc565b9093019392505050565b60006125a482612a69565b6125ae81856103eb565b93506125be818560208601612aac565b9290920192915050565b61255b81612a81565b61255b81610bca565b60006125e7601e83612a6d565b7f5f6b206d75737420626520736d616c6c6572207468616e20696e743235360000815260200192915050565b6000612620602283612a6d565b7f5f63206d75737420626520736d616c6c6572207468616e206d617820696e743281527f3536000000000000000000000000000000000000000000000000000000000000602082015260400192915050565b600061267f602483612a6d565b7f5f763174206d75737420626520736d616c6c6572207468616e206d617820696e81527f7432353600000000000000000000000000000000000000000000000000000000602082015260400192915050565b60006126de601b83612a6d565b7f536166654d6174683a206164646974696f6e206f766572666c6f770000000000815260200192915050565b6000612717600483612a6d565b7f21676f7600000000000000000000000000000000000000000000000000000000815260200192915050565b6000612750602483612a6d565b7f5f763274206d75737420626520736d616c6c6572207468616e206d617820696e81527f7432353600000000000000000000000000000000000000000000000000000000602082015260400192915050565b60006127af601683612a6d565b7f526562617365206e6f7420616c6c6f7765642079657400000000000000000000815260200192915050565b60006127e8602183612a6d565b7f536166654d6174683a206d756c7469706c69636174696f6e206f766572666c6f81527f7700000000000000000000000000000000000000000000000000000000000000602082015260400192915050565b6000612847601c83612a6d565b7f52656261736520696e74657276616c206e6f7420657863656564656400000000815260200192915050565b6000612880600483612a6d565b7f21656f6100000000000000000000000000000000000000000000000000000000815260200192915050565b60006128b9600583612a6d565b7f2176656c6f000000000000000000000000000000000000000000000000000000815260200192915050565b6000610f1e8284612599565b6020810161067d8284612552565b6040810161290d8285612552565b8181036020830152610cff8184612561565b6020810161067d82846125c8565b6020810161067d82846125d1565b60208082528101610f1e8184612561565b602080825281016103e8816125da565b602080825281016103e881612613565b602080825281016103e881612672565b602080825281016103e8816126d1565b602080825281016103e88161270a565b602080825281016103e881612743565b602080825281016103e8816127a2565b602080825281016103e8816127db565b602080825281016103e88161283a565b602080825281016103e881612873565b602080825281016103e8816128ac565b60405181810167ffffffffffffffff81118282101715612a1b57600080fd5b604052919050565b600067ffffffffffffffff821115612a3a57600080fd5b506020601f919091017fffffffffffffffffffffffffffffffffffffffffffffffffffffffffffffffe0160190565b5190565b90815260200190565b60006103e882612a87565b600f0b90565b73ffffffffffffffffffffffffffffffffffffffff1690565b82818337506000910152565b60005b83811015612ac7578181015183820152602001612aaf565b83811115612ad6576000848401525b50505050565b601f017fffffffffffffffffffffffffffffffffffffffffffffffffffffffffffffffe01690565b612b0d81612a76565b811461143157600080fd5b612b0d81612a81565b612b0d81610bca56fea365627a7a723158203360977e2aa078ca81f89194772f048cb3557bf6e70d16f18525ce2de852ec896c6578706572696d656e74616cf564736f6c63430005110040",
  "source": "pragma solidity 0.5.17;\npragma experimental ABIEncoderV2;\n\nimport \"../lib/SafeERC20.sol\";\nimport \"../lib/SafeMath.sol\";\nimport {VELOTokenInterface as IVELO} from \"../token/VELOTokenInterface.sol\";\nimport { ABDKMath64x64 as fp } from \"../lib/ABDKMath64x64.sol\";\n\ncontract VELORebaser {\n  using SafeMath for uint256;\n  using fp for int128;\n\n  uint256 public lastRebase;\n\n  // FIXME: need to set the REBASE INTERVAL by variable\n  //        start as well.\n  uint256 public constant REBASE_INTERVAL = 12 hours;\n  uint256 public constant START_REBASE_AT = 1603022705;\n\n  uint256 public constant C =  1618033988700000000;\n  uint256 public constant K = 15000000000000000000;\n\n  uint256 public constant Ls =   76000000000000000;  // 0.001 Slow EMA\n  uint256 public constant Lf =   64410000000000000; // 0.999 Fast EMA\n\n  uint256 public sEMA;\n  uint256 public fEMA;\n\n  uint256 public velocity;\n\n  // FIXME: rename \n  uint256 public constant PRECISSION = 10**18;\n\n  address public VELO;\n\n  /// @notice Governance address\n  address public gov;\n\n  // Stable ordering is not guaranteed.\n  Transaction[] public transactions;\n\n  // TODO rebase events\n\n  struct Transaction {\n    address destination;\n    bytes data;\n  }\n\n  modifier onlyGov() {\n    require(msg.sender == gov, \"!gov\");\n    _;\n  }\n\n  modifier onlyVELO() {\n    require(msg.sender == VELO, \"!velo\");\n    _;\n  }\n\n  constructor(\n    address _VELO\n  ) public {\n    VELO = _VELO;\n    gov = msg.sender;\n  }\n\n  function setGov(address newGov) external onlyGov {\n    gov = newGov;\n  }\n\n  function addTransaction(address destination, bytes memory data) public onlyGov {\n    transactions.push(Transaction({\n      destination: destination,\n      data: data\n    }));\n  }\n\n  function removeTransaction(uint256 index) external onlyGov {\n    transactions[index] = transactions[transactions.length];\n    transactions.pop();\n  }\n\n  function registerVelocity(uint256 amount) external onlyVELO {\n    velocity = velocity.add(amount);\n  }\n\n  // returns velocity in scaled units\n  function getVelocity() external view returns (uint256) {\n    return velocity;\n  }\n\n  function getRelativeVelocity() external view returns (uint256) {\n    IVELO velo_token = IVELO(VELO);\n\n    // calculate the Vt, an limit the ranges\n    uint256 Vt = velocity.mul(100 * 10**18).div(velo_token.totalSupply());\n    if(Vt > 100 * 10**18) {\n      Vt = 100 * 10**18;\n    }\n\n    return Vt;\n  }\n\n\n  function calcEMA(uint256 Vt_1, uint256 Vt, uint256 L) private pure returns(uint256) {\n    return  (Vt * L) / 10**18 + ((10**18 - L) * Vt_1) / 10**18;\n  }\n\n  function rebase() public {\n    require(block.timestamp > START_REBASE_AT, \"Rebase not allowed yet\");\n    require(block.timestamp - lastRebase > REBASE_INTERVAL, \"Rebase interval not exceeded\");\n\n    // NOTE: why do we need this to be an actiual person?\n    require(msg.sender == tx.origin, \"!eoa\");\n\n    IVELO velo_token = IVELO(VELO);\n\n    // calculate the Vt, an limit the ranges\n    uint256 Vt = this.getRelativeVelocity();\n\n    fEMA = calcEMA(fEMA, Vt, Lf);\n    sEMA = calcEMA(sEMA, Vt, Ls);\n\n    uint256 scaling_modifier = calcFTFixed(fEMA, sEMA, C, K);\n\n    // scale our supply according to formula\n    velo_token.rebase(scaling_modifier);\n\n    lastRebase = block.timestamp;\n\n    // reset the velocity so we can track\n    // the velocity for the next epoch\n    velocity = 0;\n\n    _afterRebase();\n  }\n\n  function _afterRebase() internal {\n    // https://github.com/yam-finance/yam-protocol/blob/master/contracts/rebaser/YAMRebaser.sol#L555\n    // UniSwap Pair Should be Synched here\n    // FIXME: sync with uniswap\n    // UniswapPair(uniswap_pair).sync();\n\n    for(uint256 i = 0; i < transactions.length; i ++) {\n      Transaction memory transaction = transactions[i];            \n      // Failed transactions should be ignored\n      transaction.destination.call(transaction.data);\n    }\n\n  }\n\n  function toFP(int256 _value) public pure returns (int128) {\n    return fp.fromInt(_value);\n  }\n\n  function toInt(int128 _value) public pure returns (int256) {\n    return fp.muli(_value, int256(PRECISSION));\n  }\n\n  function op_nv1t_plus_v2t_v(uint256 _v1t, uint256 _v2t) public pure returns (int128) {\n    require(_v1t < 2**255 - 1, \"_v1t must be smaller than max int256\");\n    require(_v2t < 2**255 - 1, \"_v2t must be smaller than max int256\");\n\n    int128 MINUS_ONE = fp.fromInt(-1);\n\n    int128 v1t = fp.divu(_v1t, PRECISSION);\n    int128 v2t = fp.divu(_v2t, PRECISSION);\n\n    return v1t.mul(MINUS_ONE).add(v2t);\n  }\n\n  function op_div_k_v(int128 _op_nv1t_plus_v2t_v, uint256 _k) public pure returns(int128) {\n    require(_k < 2**255 - 1, \"_k must be smaller than int256\");\n\n    int128 k = fp.divu(_k, PRECISSION);\n\n    return fp.div(_op_nv1t_plus_v2t_v, k);\n  }\n\n  function op_e_pow_v(int128 _op_div_k_v) public pure returns(int128) {\n    return fp.exp(_op_div_k_v);\n  }\n\n  function op_one_plus_v(int128 _op_e_pow_v) public pure returns(int128) {\n    return fp.fromUInt(1).add(_op_e_pow_v);\n  }\n\n  function op_div_v(int128 _op_one_plus_v) public pure returns(int128) {\n    return fp.fromUInt(1).div(_op_one_plus_v);\n  }\n\n  //     let op_n_plus_v = -0.5_f64 + op_div_v;\n  function op_n_plus_v(int128 _op_div_v) public pure returns(int128) {\n    return fp.divi(1, -2).add(_op_div_v);\n  }\n\n\n  // let op_c_mul_v = c * op_n_plus_v;\n  function op_c_mul_v(uint256 _c, int128 _op_n_plus_v) public pure returns(int128) {\n    require(_c < 2**255 - 1, \"_c must be smaller than max int256\");\n    int128 c = fp.divu(_c, PRECISSION);\n\n    return fp.mul(c, _op_n_plus_v);\n  }\n\n  //     let op_rt_v = 1_f64 + op_c_mul_v;\n  function op_rt_v(int128 _op_c_mul_v) public pure returns(int128) {\n    return fp.fromUInt(1).add(_op_c_mul_v);\n  }\n\n\n  function calcFTFixed(uint256 _v1t, uint256 _v2t, uint256 _c, uint256 _k) public pure returns (uint256) {\n    int128 op_nv1t_plus_v2t_v_ = op_nv1t_plus_v2t_v(_v1t, _v2t);\n    int128 op_div_k_v_ = op_div_k_v(op_nv1t_plus_v2t_v_, _k);\n    int128 op_e_pow_v_ = op_e_pow_v(op_div_k_v_);\n    int128 op_one_plus_v_ = op_one_plus_v(op_e_pow_v_);\n    int128 op_div_v_ = op_div_v(op_one_plus_v_);\n    int128 op_n_plus_v_ = op_n_plus_v(op_div_v_);\n    int128 op_c_mul_v_ = op_c_mul_v(_c, op_n_plus_v_);\n    int128 op_rt_v_ = op_rt_v(op_c_mul_v_);\n\n    return fp.mulu(op_rt_v_, PRECISSION);\n  }\n\n}\n",
  "sourcePath": "/Users/bmaas/Sites/velo/velo-protocol-master/contracts/rebaser/VELORebaser.sol",
  "compiler": {
    "name": "solc",
    "version": "0.5.17+commit.d19bba13.Emscripten.clang"
  },
  "schemaVersion": "3.3.0",
  "updatedAt": "2020-10-18T12:34:01.857Z",
  "networkType": "ethereum",
  "devdoc": {
    "methods": {}
  },
  "userdoc": {
    "methods": {}
  }
}